S00F000053616665426F782E737265636D
S11300000C9434000C9451000C9451000C94510045
S11300100C9451000C9451000C9451000C94510018
S11300200C9451000C9451000C9451000C94510008
S11300300C9451000C9451000C9451000C945100F8
S11300400C9451000C9451000C9451000C945100E8
S11300500C9451000C9451000C9451000C945100D8
S11300600C9451000C94510011241FBECFEFD8E022
S1130070DEBFCDBF11E0A0E0B1E0E8E1FCE002C0EA
S113008005900D92AA32B107D9F721E0AAE2B1E0B6
S113009001C01D92AF32B207E1F70E940E020C9428
S11300A00A060C940000FC01408121E030E002C00B
S11300B0220F331F6A95E2F7242B2083089584B11D
S11300C0876084B90895289A2FEF80E792E0215041
S11300D080409040E1F700C000001B9927C01C99A4
S11300E037C01D9947C01E9957C02898299A2FEFE9
S11300F080E792E0215080409040E1F700C000008A
S11301001B9919C01C9929C01D9939C01E9949C051
S113011029982A9A2FEF80E792E02150804090405E
S1130120E1F700C000001B990BC00FC01B99FECF64
S113013028988EE408951B99FECF299880E30895AA
S11301401B99FECF2A988EE408951C990BC00FC00A
S11301501C99FECF289887E308951C99FECF29980F
S113016088E308951C99FECF2A9889E308951D9980
S11301700BC00FC01D99FECF289884E308951D99E4
S1130180FECF299885E308951D99FECF2A9886E32A
S113019008951E990BC00FC01E99FECF289881E3C5
S11301A008951E99FECF299882E308951E99FECFE3
S11301B02A9883E308952A982FEF80E792E021504C
S11301C080409040E1F700C000007DCF599A85E05F
S11301D08A95F1F7000059980895CF93C82F6623A4
S11301E011F0589A01C05898549A559A569A579AA9
S11301F05F985E985D985C98CC230CF45F9AC6FD7A
S11302005E9AC5FD5D9AC4FD5C9A0E94E6005F9803
S11302105E985D985C98C3FD5F9AC2FD5E9AC1FDCD
S11302205D9AC0FD5C9A0E94E6005C9A5D9A5E9AB3
S11302305F9A87EB9BE00197F1F700C00000CF9134
S1130240089560E00E94ED000895611104C0805893
S11302500E942101089580540E942101089581E0A3
S11302600E942101089561E00E94ED000895CF935A
S1130270DF93EC012196FC018081882329F00E9400
S1130280330189918111FBCFDF91CF910895CF93F1
S1130290C82F509A559A519A549A559A569A579AE1
S11302A08FEF99EF0197F1F700C000005D9A5C9A17
S11302B00E94E6008FE19EE40197F1F700C0000080
S11302C00E94E6008FEF90E00197F1F700C0000074
S11302D00E94E6008FEF90E00197F1F700C0000064
S11302E05C980E94E6008FEF90E00197F1F700C060
S11302F0000088E20E94210188E00E9421010E94FE
S11303002F0186E00E9421018C2F0E942101CF91B0
S11303100895EF92FF920F931F93CF93DF93CDB77E
S1130320DEB72C970FB6F894DEBF0FBECDBF8EEDAF
S113033094E00E94AA059F938F9300E011E01F931D
S11303400F93CE0101969F938F930E94F7027C0135
S1130350FF928F931F930F93CE0105969F938F93D4
S11303600E94F7020FB6F894DEBF0FBECDBF94E033
S1130370E916F10409F445C060E083E00E94250118
S113038083E091E00E94370161E086E00E9425014C
S11303908DE091E00E9437018DE289878A878B87FF
S11303A08C877E01E9E0EE0EF11C00E010E00E9473
S11303B063008E3489F0F70181937F0161E086E068
S11303C00E942501CE0109960E9437010F5F1F4F3D
S11303D00430110521F0EBCF0430110544F3FFEF95
S11303E029E688E1F15020408040E1F700C0000098
S11303F0CE0109960E94C802BC018EED94E00E94D1
S1130400B0052C960FB6F894DEBF0FBECDBFDF91BA
S1130410CF911F910F91FF90EF900895CF93DF93A9
S113042000D000D01F92CDB7DEB78CE00E94470108
S11304300E945F0060E087E290E00E9453000E9407
S113044089018EED94E00E94AA059F938F9380E02A
S113045091E09F938F938AE291E09F938F930E9400
S1130460F7020F900F900F900F900F900F900F2E98
S1130470FAE2EF2EF1E0FF2EF02D0F2EF1E8CF2E51
S1130480D12CF02D0F2EF8E84F2E512CF02D0F2EDD
S1130490FBE18F2EF7EB9F2EF02D0F2EF4E86F2E3D
S11304A0712CF02D0E942F0160E083E00E94250151
S11304B088E091E00E94370161E086E00E94250116
S11304C08DE091E00E943701CE0101965C010F2E70
S11304D0F6E03F2EF02D00E010E00E9463008E3421
S11304E089F0F50181935F0161E0832D0E9425016C
S11304F08AE20E9433010F5F1F4F3394FAE03F16E4
S113050021F0EBCF0430110541F71D82F70114826D
S1130510BE016F5F7F4FC7010E94E602892B21F560
S11305200E942F0160E081E00E94250182E191E0B8
S11305300E943701409AF601808185608083F20130
S113054091828082F30111821082B19BFECF98B117
S113055081E0892788B9F30111821082F6011082A3
S1130560B19A0E942F019ECF0E942F0160E081E08A
S11305700E9425018CE191E00E943701FFEF29E6FA
S113058088E1F15020408040E1F700C000008ACFAC
S1130590FC0188279927E89421912032E9F3293036
S11305A010F02E30C8F32B3241F02D3239F4689418
S11305B004C00E94EF02820F911D219120532A3022
S11305C0C0F31EF4909581959F4F0895FB01DC01C3
S11305D08D91019080190110D9F3990B08957AE057
S11305E0979F902D879F802D910D11240895AEE043
S11305F0B0E0EDEFF2E00C94E1050D891E8986E090
S11306008C831A8309838FEF9FE79E838D83AE01CA
S1130610475E5F4F6F89788DCE0101960E94190362
S1130620EF81F885E00FF11F10822E96E4E00C9420
S1130630FD05ABE0B0E0EFE1F3E00C94D3056C0111
S11306407B018A01FC0117821682838181FFCCC160
S1130650CE0101963C01F6019381F70193FD85914A
S113066093FF81917F01882309F4BAC1853239F45B
S113067093FD859193FF81917F01853229F4B60121
S113068090E00E941005E7CF912C212C312CFFE142
S1130690F315D8F08B3279F038F4803279F0833264
S11306A0A1F4232D20611DC08D3261F0803369F4E3
S11306B0232D216016C0832D8260382EE32DE46043
S11306C03E2E2AC0F32DF8601DC037FC2DC020ED4E
S11306D0280F2A3040F08E32B9F436FC81C1232D24
S11306E02064322E19C036FE06C08AE0989E200D82
S11306F01124922E11C0EAE02E9E200D1124222EE8
S1130700F32DF0623F2E08C08C3621F4832D8068CF
S1130710382E02C0883641F4F70193FD859193FF8A
S113072081917F018111B3CF982F9F7D9554933090
S113073028F40C5F1F4F9FE399830DC0833631F07B
S1130740833771F0833509F059C021C0F8018081E5
S113075089830E5F1F4F88248394912C530113C007
S11307602801F2E04F0E511CF801A080B18036FE42
S113077003C0692D70E002C06FEF7FEFC5010E94D6
S113078005054C018201F32DFF773F2E16C0280189
S113079022E0420E511CF801A080B18036FE03C055
S11307A0692D70E002C06FEF7FEFC5010E94FA046B
S11307B04C01F32DF0683F2E820133FC1BC0822DC7
S11307C090E088169906B0F4B60180E290E00E94A9
S11307D010052A94F4CFF50137FC859137FE8191F9
S11307E05F01B60190E00E94100521102A9421E0D7
S11307F0821A91088114910471F7E8C0843611F0CB
S1130800893641F5F80137FE07C060817181828124
S113081093810C5F1F4F08C060817181072E000C0B
S1130820880B990B0E5F1F4FF32DFF763F2E97FF1A
S113083009C090958095709561957F4F8F4F9F4F1C
S1130840F0683F2E2AE030E0A3010E944C05882E78
S1130850861845C0853731F4232D2F7EB22E2AE029
S113086030E025C0932D997FB92E8F36C1F018F44E
S1130870883579F0B5C0803719F0883721F0B0C0D9
S1130880E92FE061BE2EB4FE0DC0FB2DF460BF2E37
S113089009C034FE0AC0292F2660B22E06C028E003
S11308A030E005C020E130E002C020E132E0F80190
S11308B0B7FE07C060817181828193810C5F1F4FF5
S11308C006C06081718180E090E00E5F1F4FA3013C
S11308D00E944C05882E8618FB2DFF773F2E36FE8E
S11308E00DC0232D2E7FA22E891458F434FE0BC084
S11308F032FC09C0832D8E7EA82E05C0B82CA32CF3
S113090003C0B82C01C0B92CA4FE0FC0FE01E80D31
S1130910F11D8081803321F49A2D997EA92E09C07E
S1130920A2FE06C0B394B39404C08A2D867809F05D
S1130930B394A3FC11C0A0FE06C0B21488F4280C22
S1130940922C9B180EC0B21460F4B60180E290E0C1
S11309500E941005B394F7CFB21418F42B1802C0F8
S1130960982C212CA4FE10C0B60180E390E00E94D4
S11309701005A2FE17C0A1FC03C088E790E002C0E6
S113098088E590E0B6010CC08A2D867859F0A1FE66
S113099002C08BE201C080E2A7FC8DE2B60190E0C8
S11309A00E941005891438F4B60180E390E00E9497
S11309B010059A94F7CF8A94F301E80DF11D808114
S11309C0B60190E00E9410058110F5CF222009F4B1
S11309D042CEB60180E290E00E9410052A94F6CF40
S11309E0F6018681978102C08FEF9FEF2B96E2E19B
S11309F00C94EF05FC010590615070400110D8F78C
S1130A00809590958E0F9F1F0895FC016150704052
S1130A1001900110D8F7809590958E0F9F1F08952F
S1130A200F931F93CF93DF93FB01238121FD03C019
S1130A308FEF9FEF2CC022FF16C04681578124817F
S1130A4035814217530744F4A081B1819D012F5F82
S1130A503F4F318320838C93268137812F5F3F4F13
S1130A603783268314C08B01EC01FB010084F185DC
S1130A70E02D0995892BE1F6D80116968D919C916C
S1130A801797019617969C938E931697CE01DF9134
S1130A90CF911F910F910895FA01AA27283051F19F
S1130AA0203181F1E8946F936E7F6E5F7F4F8F4F9B
S1130AB09F4FAF4FB1E03ED0B4E03CD0670F781FFA
S1130AC0891F9A1FA11D680F791F8A1F911DA11DDF
S1130AD06A0F711D811D911DA11D20D009F4689418
S1130AE03F912AE0269F11243019305D3193DEF6C0
S1130AF0CF010895462F4770405D4193B3E00FD076
S1130B00C9F7F6CF462F4F70405D4A3318F0495D60
S1130B1031FD4052419302D0A9F7EACFB4E0A69543
S1130B209795879577956795BA95C9F70097610565
S1130B30710508959B01AC010A2E069457954795BB
S1130B4037952795BA95C9F7620F731F841F951FB0
S1130B50A01D0895A8E1B0E042E050E00C94B70570
S1130B600E94C505272F0C94C605DC01CB01FC01AE
S1130B70F999FECF06C0F2BDE1BDF89A319600B4F2
S1130B800D9241505040B8F70895262FF999FECFA1
S1130B901FBA92BD81BD20BD0FB6F894FA9AF99A96
S1130BA00FBE019608952F923F924F925F926F92DB
S1130BB07F928F929F92AF92BF92CF92DF92EF92E9
S1130BC0FF920F931F93CF93DF93CDB7DEB7CA1B6A
S1130BD0DB0B0FB6F894DEBF0FBECDBF09942A8895
S1130BE0398848885F846E847D848C849B84AA843D
S1130BF0B984C884DF80EE80FD800C811B81AA81CA
S1130C00B981CE0FD11D0FB6F894DEBF0FBECDBF94
S10B0C10ED010895F894FFCFF3
S1130C182564005341564520434F4445002D2D2D4E
S1130C282D004F50454E45442121210057524F4E27
S10D0C384720434F444521212100C9
S9030000FC
